{
  "_format": "hh-sol-artifact-1",
  "contractName": "KYCRegistry",
  "sourceName": "contracts/KYCVerification.sol",
  "abi": [
    {
      "anonymous": false,
      "inputs": [
        {
          "indexed": true,
          "internalType": "address",
          "name": "userAddress",
          "type": "address"
        },
        {
          "indexed": false,
          "internalType": "bool",
          "name": "isVerified",
          "type": "bool"
        }
      ],
      "name": "KYCStatusUpdated",
      "type": "event"
    },
    {
      "inputs": [
        {
          "internalType": "address",
          "name": "_userAddress",
          "type": "address"
        }
      ],
      "name": "checkKYCVerification",
      "outputs": [
        {
          "internalType": "bool",
          "name": "",
          "type": "bool"
        }
      ],
      "stateMutability": "view",
      "type": "function"
    },
    {
      "inputs": [
        {
          "internalType": "address",
          "name": "",
          "type": "address"
        }
      ],
      "name": "isKYCVerified",
      "outputs": [
        {
          "internalType": "bool",
          "name": "",
          "type": "bool"
        }
      ],
      "stateMutability": "view",
      "type": "function"
    },
    {
      "inputs": [],
      "name": "registerKYC",
      "outputs": [],
      "stateMutability": "nonpayable",
      "type": "function"
    }
  ],
  "bytecode": "0x6080604052348015600f57600080fd5b506102c98061001f6000396000f3fe608060405234801561001057600080fd5b50600436106100415760003560e01c80632a04e7f71461004657806354b7636e14610076578063f246de4e146100a6575b600080fd5b610060600480360381019061005b9190610230565b6100b0565b60405161006d9190610278565b60405180910390f35b610090600480360381019061008b9190610230565b610105565b60405161009d9190610278565b60405180910390f35b6100ae610125565b005b60008060008373ffffffffffffffffffffffffffffffffffffffff1673ffffffffffffffffffffffffffffffffffffffff16815260200190815260200160002060009054906101000a900460ff169050919050565b60006020528060005260406000206000915054906101000a900460ff1681565b60016000803373ffffffffffffffffffffffffffffffffffffffff1673ffffffffffffffffffffffffffffffffffffffff16815260200190815260200160002060006101000a81548160ff0219169083151502179055503373ffffffffffffffffffffffffffffffffffffffff167f2df1cad2a2659e001c3804c872f69655356013e35c18c2e77a5d568078ab788f60016040516101c39190610278565b60405180910390a2565b600080fd5b600073ffffffffffffffffffffffffffffffffffffffff82169050919050565b60006101fd826101d2565b9050919050565b61020d816101f2565b811461021857600080fd5b50565b60008135905061022a81610204565b92915050565b600060208284031215610246576102456101cd565b5b60006102548482850161021b565b91505092915050565b60008115159050919050565b6102728161025d565b82525050565b600060208201905061028d6000830184610269565b9291505056fea2646970667358221220c5d6d0cde3a6150b4b8ebc1384b313d9a442eaff3bef161629bb9e3d5b161a1b64736f6c634300081c0033",
  "linkReferences": {},
  "deployedLinkReferences": {}
}